:020000021000EC
:108000000040002009F8010045F8010047F8010090
:108010000000000000000000000000000000000060
:1080200000000000000000000000000049F801000E
:1080300000000000000000004BF801004DF80100B6
:108040004FF80100E5AA0100BD0002004FF8010051
:108050004FF801000000000079F801004FF801001E
:108060004FF801003DFD0100C50102004FF801007D
:108070004FF801004FF801004FF801004FF80100E0
:108080004FF801004FF801004FF801004FF80100D0
:108090004FF8010059EA010059DC01004FF80100D6
:1080A0004FF801004FF80100000000000000000040
:1080B00000000000000000000000000000000000C0
:1080C00010B5064C2378002B07D1054B002B02D0AE
:1080D000044800E000BF0123237010BD20220020CF
:1080E000000000009CA70200084B10B5002B03D035
:1080F0000749084800E000BF07480368002B00D18B
:1081000010BD064B002BFBD09847F9E7000000009C
:10811000242200209CA7020014220020000000005E
:10812000164B002B00D1144B9D46402292029A1A06
:10813000924600218B460F461348144A121A11F03A
:108140009BF80F4B002B00D098470E4B002B00D014
:1081500098470020002104000D000D48002802D09F
:108160000C4800E000BF0CF0A5FB2000290010F037
:1081700047FE0CF089FBC0460000080000400020CC
:10818000000000000000000018220020882A0020C3
:10819000000000000000000010B50400034B036065
:1081A00040300DF03EFB200010BDC046109502008F
:1081B000F0B53C4C3C4EA544300000F081F914234E
:1081C00019220093182136A802F0ECFC00240123A8
:1081D00000941A00112110A801F0C4FA01230094A0
:1081E00002221A211AA801F0BDFA22001E210AA8B3
:1081F0000DF080FF05231D220AA924A801F0FEFC32
:1082000024A801F005FC782701343500C535FF3579
:10821000210028000DF0A0FC2100059028000DF0A1
:10822000AEFC2100069028000DF0BCFC079010A8C1
:108230000DF03CFD0497002801D16F2304931AA888
:108240000DF034FD3D00002800D16F25210024A849
:108250000DF085FD210024A80DF093FD210024A838
:108260000DF0A1FD049B059A0193079B02950093D5
:108270000E49069B4EA80CF05DFC4EA908A800F024
:108280004FFF08A909A80DF021FB220009A936A873
:108290000EF06DFA09A80DF0C4FA08A80DF0C1FAA5
:1082A000B3E7C046C4FDFFFF3C22002028A1020026
:1082B00010B5054C200000F043F8044A04492000A2
:1082C00010F091FF10BDC0463C220020002000208D
:1082D000D5820100EB23194A9B0010B5C2501C3314
:1082E0000400C0180DF09DFAF1239B00E0180DF07A
:1082F00098FA84239B00E01801F062FA2000C53050
:10830000FF3000F099FF20008D30FF3001F01EFAA1
:1083100020006530FF3001F019FA2000EC3001F048
:108320000DFF2000D03002F055FA2000643007F035
:10833000BFF9201DFFF730FF200010BD0C97020091
:108340001423F0B5040095B01922009318210430CD
:1083500002F028FC230027006433B43713211800EF
:10836000119307F0B1F938000EF049FA2300B83341
:1083700000221E21180010930DF0BCFE2000D0300A
:1083800002F048FA2300EC334A4A062118001293FF
:1083900001F0F8FE20000026012365301A00009647
:1083A0001121FF3001F0DEF920008D30009601230D
:1083B00002221A21FF3001F0D5F925002000C53531
:1083C000B530FF351A2302220121FF3002F0E0FA16
:1083D000109904233A22280000F0BAFF84239B005E
:1083E000E318139305230193183300932A003B00ED
:1083F0001099139801F0DAFB96239B00E0182A00ED
:10840000129B139901F0C4FD99239B00E0183900D9
:108410001C2202F0DFFD9F239B00E01819230F931D
:10842000013B0E93013B0D93013B0C93013B0B93DE
:10843000013B0A93013B0993013B0893013B0793DE
:10844000013B0693013B0593013B0493013B0393DE
:10845000013B0293013B0193013B0822009307215A
:10846000013B0DF04FFEEB239B00E018390003F0B9
:1084700057F9F3239B00E0181D2102F0CFFAFD23EA
:108480009B00E65011982670032110F0DCFB2300BE
:108490002200200008499C33A0321C601160566005
:1084A000064A80305A610221012207F097FA200023
:1084B00015B0F0BD189502006F5402005B54020025
:1084C0000123F0B5067889B004001E407BD1FD2061
:1084D000800500F0E1FC2300D0331800029300F087
:1084E000B5FA00F0A9F9282000F00EFD05001030C3
:1084F0000DF026FA4F4B6E802B80182000F004FD03
:1085000007004D4B10C7039010223100380006932E
:10851000079610F0B1FE082206A9380010F091FE6F
:10852000464B039A290053611223AA60EE60AB8088
:108530002E626E62029802F0E3F8002805D028004F
:108540000DF025F9280000F0FFFC012322786420BB
:108550001343237000F096FB002527006537FF3793
:1085600038000DF0A3FB002808D020008D30FF302C
:108570000DF09CFB002801D0092D26DDFD26304999
:108580003048B60000F05EFCA559002D1BD100F06C
:1085900067F8010004A800F0C3FD05A80CF0DAFF9D
:1085A000EB239B00E01805AA029B04A9009503F0A9
:1085B0000BF905A80DF035F904A80DF032F9ED23FB
:1085C0009B00E358A35109B0F0BD6420013500F0D1
:1085D00059FB0A2DC1D1FD2619491A48B60000F0F1
:1085E00031FCA359002B1CD100F03AF8010004A87B
:1085F00000F096FD05A80CF0ADFFEB2001238000F4
:1086000005AA04A900932018029B03F0DDF805A831
:108610000DF007F904A80DF004F9ED239B00E358D1
:10862000A351EB2321009B003A00EC31E01803F04A
:1086300071FA92E7FD030000E3540200A354020024
:1086400000200020001C0020BFF34F8F024A034B84
:10865000DA60BFF34F8FFEE70400FA0500ED00E09B
:10866000F0B58DB005AF19221549380010F0E9FDBD
:108670000022144B05245A7180225205566E0122A5
:1086800025000194029203930199300007F0BAFE8D
:108690000800029907F030FE019B03996B43019398
:1086A000029B361A6B430293631E2C1B6C433C19CE
:1086B000225C1C1ECA54E7D108000DB0F0BDC046B4
:1086C00072A10200B6290020F0B595B01822002151
:1086D00006000EA810F0D0FD13210EA810F0D9FB53
:1086E00003210EA810F0BAFC4C4B1B68002B00D1E4
:1086F0000133DBB202934A4A0123002109A807F0A3
:10870000A7F8484B9E4200D9002672B6464B10226D
:10871000002105A81D6810F0AFFD444B6421300016
:108720000593052407F072FE604350302818069028
:108730000A21300007F06AFE0A2107F04DFF61436D
:1087400050316918079130000A2107F045FF802356
:1087500061430024503169189B0108910093029BEA
:10876000002B59D0002500232E1F019305AB9B1928
:108770000393032C03D1802300249B01009305ABBA
:108780002B4A585963000133D318002211001026D8
:108790005F1E3F783E4137001E78865D3E4202D024
:1087A00001279740394301320633092AEFD1C943E3
:1087B000204B09011940039B1B68984229D1019B5A
:1087C000312B26DC002109A810F03EFCFA23139A75
:1087D0000F99DB00106801421ED0013B002BF9D13C
:1087E000009B01345B000093019BE4B201330193D1
:1087F000FA23019A5B009A42BBD10435102DB2D105
:10880000064B1B68002BAAD0029B013BDBB20293F4
:10881000A5E7009B1943D6E7FFF716FF382600208F
:10882000F0FF0000E703000004200020C1A10200C7
:108830008BA10200F01F0000F8B50023124C23604A
:108840000CF0A9FE002808D0042120000CF09FFEA7
:10885000002801D00D4B2360F8BD0122A12704257B
:108860000B4B0C491A602268FF0048604E68002ECE
:10887000FCD0DE591202013D3243002DF5D12260B9
:1088800001225A60E8E7C04634260020ED5EBC0BAA
:1088900000D00040FCD00040F0B585B01F000AAB0E
:1088A0001B880600029115000393002F1CD028207E
:1088B00000F02AFB6B4604001989039BAAB20093BF
:1088C0003B000CF04DFF336821005B683000984797
:1088D00000280AD0002C05D020000CF058FF200002
:1088E00000F032FB024800E0024805B0F0BDC0468F
:1088F00016FCFFFF17FCFFFF0B4B70B51C68002C2C
:1089000010D0656D00F0C8FBA36C002901D1834233
:1089100006D820000CF072FE044920000CF05CFE2A
:108920002C00ECE770BDC0464026002060260020E9
:10893000F0B5060093B007932A4B04901C682A4BAD
:1089400005911F68069285B2360C002F47D0002390
:108950000293002C2FD0636D244803934823E3181F
:108960001A88A36C1B0C99B2854214D1204882420C
:1089700011D1002B01D0B1420BD1029B002B08D1A9
:1089800020000CF03BFE1B4920000CF025FE0123CB
:108990000293039CDDE7002A01D09542F9D1002B18
:1089A00001D0B142F5D120000CF028FE1149200081
:1089B0000CF012FEEDE7104BEB18012B0FD9102332
:1089C0003200009329000D4B08A80CF0C9FE3B684B
:1089D00008A99B683800984708A80CF0D8FE13B087
:1089E000F0BDC0466C2600203C260020FE0300009F
:1089F000FF0300006026002002FCFFFF3189010018
:108A000070B572B60B4B1C68002C08D020000CF01F
:108A1000F5FD0023E364084B2000E36370BD62B6FC
:108A20005C2000F071FA050021005C2210F024FCAB
:108A30002C00EEE76426002000400020024B18784E
:108A4000012318407047C046BC290020F7B5060036
:108A5000FFF7F4FF051E33D11A4C2660FFF7D0FF55
:108A6000194B1A4918600CF0B7FDFFF7C9FF184BF6
:108A70001860184B4363184B8363206800280ED09E
:108A8000C027164E2A00330015490097FFF704FF50
:108A9000009733002A0013492068FFF7FDFE0C20E1
:108AA00000F032FA0023838083710F4B03600F4B79
:108AB000836000F009FB01230D4A11780B4313700A
:108AC000F7BDC0463C26002070260020602600200E
:108AD00068260020FC3F0020C356020031890100B7
:108AE000FF030000FE03000038950200F988010032
:108AF000BC290020F7B506000D00170001930028DF
:108B000002D100242000FEBD0029FAD0FFF778FF33
:108B1000041EF6D0074B019A4363066045608760E8
:108B2000054B002A00D0054BA363054920000CF03B
:108B300053FDE7E7FC3F00208D560200AB560200D4
:108B400060260020024B1868434258417047C046D7
:108B500060260020002310B504499C006258002ABA
:108B600001D00133F9E76050100010BD4826002005
:108B7000002310B5044A99008C58844201D0013377
:108B8000F9E70020885010BD4826002010B50024C9
:108B9000074BE058002802D003685B68984704340C
:108BA000182CF5D1034B1B68002B00D120BF10BD42
:108BB0004826002060260020F8B5FFF73FFF002878
:108BC0001BD02A4D2C68E36CDA0717D502263343F5
:108BD000E3640423264F3868C26C1343C364636B99
:108BE000C3630CF031FD3868416C03F09EFB2868CC
:108BF000C36C334201D003F0D2FBF8BD1D4F1E4EB3
:108C00003A68002A02D132682A6007E0216DB94231
:108C1000FAD1616D002900D1110029602A683168FC
:108C20008A4208D11B0706D52C60FFF7AFFF3B68CF
:108C3000002BFAD02B6029688C42DED03368994231
:108C40000BD10E4B4B630E4B8B6320000CF0FCFCE6
:108C50002968626C4B6C200004E09C42F5D1002234
:108C600010004B6C03F020FBC7E7C04670260020C5
:108C7000442600206026002068260020FC3F0020BB
:108C8000C356020070B50500FFF7D8FE002803D1D7
:108C9000280010F0CEF870BD0C4B1C68E36CDB07AD
:108CA00006D5FFF7ADFE0A4B1860002800D004007F
:108CB00000F0F2F92D18A56420000CF09FFC054986
:108CC00020000CF089FCFFF777FFE4E77026002016
:108CD0004426002040260020F0B51E4B1E4F1C6885
:108CE0003B6885B006000391002B30D0FFF7A6FE4D
:108CF00000282CD0E36CDB070ED5FFF781FE174B65
:108D0000051E186008D00CF079FC154928000CF0FD
:108D100063FC2C00FFF750FF039B20001B04334330
:108D2000A3640CF06BFC20000E490CF055FC0E4BBC
:108D30000020F318012B08D9C0230093039A0B4B92
:108D400031003868FFF7A8FD002005B0F0BD0848E5
:108D5000FBE7C046702600203C2600204426002069
:108D6000602600206C26002002FCFFFF31890100F4
:108D700016FCFFFF10B5FFF761FE002809D0054C77
:108D800020680CF03BFC044920680CF025FCFFF740
:108D900013FF10BD7026002064260020F7B50700E1
:108DA0000D0000282ED0FFF749FE00282CD0072404
:108DB000164E3068C36C1C4007D0154A2900380095
:108DC0000CF033FC00242000FEBD03F0D0FA022199
:108DD0003268D36C1940019103D003218B43D364D3
:108DE000F1E701242343D3642800B8473268D36CE9
:108DF0001900A143D164019C5B07E4D528000CF065
:108E00004CFCE0E7034CDEE7034CDCE77026002077
:108E10009B56020017FCFFFF16FCFFFF020010B577
:108E2000014B12CB12C210BD74260020034B1A68EE
:108E3000034B1A607E225A607047C046042000200F
:108E40007426002070B5104D2B78022B18D081426B
:108E500018D90B1A072B15D90C00032304431C4007
:108E600010D172B62A78094BD200D05098184160C0
:108E70000CF02DFC2B7801332B7062B6200070BDF6
:108E80000348FCE70348FAE7BD2900207C260020C0
:108E900013FCFFFF17FCFFFF70B50021041C07F057
:108EA000BDFB002823D1FE21201C890507F0C0FB53
:108EB00000281CD104300BF021FD05000F48401B99
:108EC00008F070FB211C08F041F807F0E5FB0323D4
:108ED0009843040028000BF01BFD20000BF00EFD52
:108EE000002806D1203C002CF7D1054870BD05486C
:108EF000FCE70119FFF7A6FF0020F7E70038002084
:108F000013FCFFFF17FCFFFF70B5060000250C4B9C
:108F10001B789D4209DA0B49EB00C91830000CF0B0
:108F2000DEFB041E09D10135F1E730000BF0E6FC51
:108F3000041E02D11420FFF7C7FB200070BDC046FD
:108F4000BD2900207C26002070B5002813D00D4BD1
:108F50000D491C780023A34210DADA005558A842C4
:108F60000AD98A185268904206D2802304380268CF
:108F70001B061343036070BD0133ECE70BF0C8FC24
:108F8000F9E7C046BD2900207C26002070B5051EEB
:108F900014DD0B4E0B4C3368002B02D020680FF011
:108FA00033FEFA2120680024074B89008361C462E4
:108FB000694335600FF030FE200070BD0348FCE7C8
:108FC0008C260020BC2600207590010017FCFFFFB6
:108FD000F8B5114F06003D68002D0AD13020FFF78B
:108FE00093FF040006F042FB0C4BA5612360E56291
:108FF0003C600B4D2B68002B09D11020FFF784FF3C
:1090000004000FF0B9FE20002C600FF08FFE30003E
:10901000FFF7BCFFF8BDC046BC260020A09A0200A6
:10902000B8260020014B18687047C0468C260020E7
:1090300070B50D4C2368002B03D00C4B1B68002B24
:1090400002D10620FFF7C4FF20680FF086FE020061
:109050000749C3170D684E685219734120680A60AA
:109060004B600FF080FE70BDB8260020BC260020AB
:109070001822002010B5FFF7DBFF0024054BE05855
:10908000002802D003681B6898470434282CF5D1C7
:1090900010BDC0469026002010B5FFF7C9FFFA2288
:1090A000034B920018685968002307F0D5FA10BDE9
:1090B0001822002010B5FFF7BBFF024B1868596853
:1090C00010BDC046182200200B4B10B51B680400D1
:1090D000002B03D0094B1B68002B02D10620FFF7A1
:1090E00077FF0023064A99008858002801D00133F1
:1090F000F9E78C5010BDC046B8260020BC260020E1
:1091000090260020002310B5044A99008C58844210
:1091100001D00133F9E70020885010BD90260020CF
:1091200010B50400002902D00B78002B03D1034BAB
:109130002360200010BD0CF07BFBFAE7489502008D
:10914000F8B504000E00150000290AD00B78002B9A
:1091500007D0002A05D0080097B210F0CDF887425A
:1091600003D90B4B23602000F8BD681DFFF7CCFE30
:1091700020600CF03CFC20682A004780310004305D
:1091800010F05FF823685D1900232B71EBE7C046F0
:1091900048950200014B03607047C04648950200A5
:1091A00010B50548054C20600CF024FC044A054924
:1091B000200010F018F810BD48950200C0260020CD
:1091C0000020002023580200084B73B51C680500DE
:1091D000002C0AD00100266808310822684610F0E9
:1091E00030F80CCD31682000884773BDC4260020BC
:1091F00010B5054C012120000CF0F0FB034A044996
:1092000020000FF0F0FF10BDC82600200020002035
:109210009D5902000388074A10B50120934208D0E7
:10922000834202D00020DB0703D41E20FFF74CFA54
:10923000002010BDFFFF000010B50400034B0833F1
:109240000360FFF795FC200010BDC046909502001A
:10925000FA2170B543898900594338230400264A0E
:10926000D518D058884204D3D518083B18000830C8
:10927000F7D1224B227B1E1D082A05DC042A03DCC1
:109280009E1C022A00DC1E00FA212868890007F0D3
:1092900033F833786081237300222A2120000CF0F8
:1092A000CDFB002801D0164870BD10222B212000D4
:1092B0000CF0C4FB0028F6D101222D2120000CF077
:1092C000BDFB0028EFD101222E2120000CF0B6FBBF
:1092D0000028E8D172780E2120000CF0AFFB0028A6
:1092E000E1D101222B792A211A4320000CF0A6FBA0
:1092F0000028D9D0D7E7C04650950200A1A30200AC
:109300000EFCFFFF7FB515000F226A4404001E000B
:109310001170002D16D0002B14DD0123018900935C
:10932000006B01F069F9002802D0074804B070BD55
:109330000090218933002A00206B01F013F90028E6
:10934000F4D0F2E70148F1E70EFCFFFF17FCFFFF46
:10935000F7B5060000250193204B143608330400AE
:10936000036085808571C581058245820F0000926A
:109370002900182230000FF07FFF1C2130000FF071
:1093800088FD6B469B880221A3806B461B882200C8
:1093900023811423638123003833A571217327634C
:1093A0003E321D705D706587A587137895728B437B
:1093B000F1310B401370230095810135221DD587B3
:1093C0000833A21DD5872000DD87FFF741FF002865
:1093D00002D1A3791D43A5712000FEBD9095020026
:1093E00030B50425837987B004002B4204D1FFF700
:1093F000B1FBA3791D43A571A36AA2691B6800256F
:109400001A4222D0280007B030BD6B460222042049
:1094100069469A561856237BD2005A43228202226A
:109420000978C00049B2C900594343436382A37914
:10943000E1819343A37120000CF00EFB0123A1886E
:109440001A0002A80CF087FADCE706236A4601211D
:109450002000FFF757FF051ED7D0014DD2E7C046C9
:109460000EFCFFFFF8B50400FFF7BAFF0E22A35E63
:109470007B4F5B42BB4205DA23003E331B789B07E0
:1094800000D5C6E02000FFF7ABFF0E22A35EC82286
:109490005B4252000025934205DD23003E331B78DA
:1094A0009B0700D4B5E02000FFF79AFF1022A35ECF
:1094B0005B42BB4205DA23003E331B785B0700D5D5
:1094C000B5E02000FFF78CFF1022A35EC8225B42AC
:1094D0005200934205DD23003E331B785B0700D426
:1094E000A5E026002000FFF77BFF1222A35E48368E
:1094F000BB4205DA23003E331B781B0700D5A3E0EF
:109500002000FFF76DFFC8231221625E5B009A42C4
:1095100005DD23003E331B781B0700D494E0002DAB
:109520000BD03378032B08DC0133DBB23370012B13
:109530005BD1230000224A331A803278002A14D0EB
:109540002100270001254A310B883E3701339BB2A9
:109550000B803878AC46054055D01D2B05D96346A5
:109560009843002338700B80337020000CF0E0FA31
:109570003C4A0723904244DD2000FFF731FF0E23D1
:10958000E25E394E52420323B2423ADBC825200044
:10959000FFF726FF0E23E25EAD0052420423AA42EB
:1095A0002FDC2000FFF71CFF1023E25E0223524253
:1095B000B24226DB2000FFF713FF1023E25E0123F7
:1095C0005242AA421DDC2000FFF70AFF1223E25E8E
:1095D0000523B24215DB2000FFF702FF1223E25EF3
:1095E0000623AA420DDC00230BE0042BA5D12200A8
:1095F0003E321178033B0B43137000234A3423801F
:109600000B331800F8BD092BAFD9013A0D80327029
:10961000ABE70125210028003E310B785A08904322
:1096200002000220AA40834313430B703BE701254D
:10963000210028003E310B789A08904382000420D4
:10964000834313430B704CE7210001223E310B781A
:10965000D80882430820D200834313430B7060E78D
:1096600070FEFFFFFF700200E0FCFFFF70B5C369F2
:10967000C2681B688AB00400451D1A4207D0EB7F00
:10968000002B09D0013B06E03300032239E0EB7FD9
:109690000B2B01DC0133EB77EB7F082B0DDD012277
:1096A000A379134209D11343A371A188130006A81B
:1096B0000CF051F9FFF7F0FC2062EB7F012B23DC6B
:1096C0000123A2791A421FD00025A188A571022288
:1096D00002A80CF040F9A31DDE7F012E14D1FFF784
:1096E000DBFC2B00226A801A994100900191019BBA
:1096F000A188AB4203D1134B009A9A42C4D90123EB
:10970000042206A80CF027F90322A3791340012BA9
:109710000AD1FFF7C1FC0023226A801A99419942BD
:1097200004D1094B984201D80AB070BD0223A27936
:10973000A1881343A3710522012306A80CF00BF99D
:10974000F2E7C046E7030000DB05000010B50400A7
:10975000034B08330360FFF7D5FC200010BDC04663
:10976000A8950200F0B5070000250E0085B0029311
:109770000AAB1B7808370393104B040008330360CF
:109780000192858085712900182238000FF074FD40
:10979000039A310038000FF081FB6B466A469B88C4
:1097A000127AA380A31DE671DA77631D256220007B
:1097B000DD77FFF789FC200005B0F0BDA895020019
:1097C00010B50400034B08330360FFF7D1F9200004
:1097D00010BDC046189602007FB515000F226A44DE
:1097E00004001E001170002D16D0002B14DD012383
:1097F00001890093C06B00F0FFFE002802D00748EB
:1098000004B070BD0090218933002A00E06B00F0A5
:10981000A9FE0028F4D0F2E70148F1E70EFCFFFFB3
:1098200017FCFFFF002330B585B003AC2170018920
:109830000093050001332200C06B00F0DDFE00281C
:1098400002D00A4805B030BD2070607029890090B0
:1098500002232200E86B00F085FE0028F1D1237876
:1098600060781B02184300B2ECE7C0460EFCFFFF15
:1098700013B56B46DC1D0023220023700133FFF774
:10988000ABFF002801D1207816BD0148FCE7C04697
:109890000EFCFFFFD0B504000CF030FAE268A369BB
:1098A000981A09F0D3FA06000F002369E069C01A7C
:1098B00009F0CCFA32003B0009F02CFE0022104BDC
:1098C00008F0FAFC0F4A104B08F0C2F909F052FBFD
:1098D0000021041C06F098FE002804D0201C0B492F
:1098E00006F0B2FF041C201C09F0F2FA02000B0083
:1098F0000020074908F060FF09F074FAD0BDC046A7
:1099000000806640EA2E4454FB2109400000B44325
:1099100000807640F0B5050085B0006C0CF0B1F920
:10992000061C286C0CF0A4F90221071C28000CF07E
:1099300016FA0221039028000CF023FA07F0E2FD4A
:109940000221041C28000CF02EFA07F0DBFD051C98
:10995000301C09F0A1FD0290301C09F05FFD019060
:10996000381C09F099FD061C381C09F057FD071C2E
:10997000039807F0C7FD391C07F0E8FA311C071CF3
:10998000201C07F0E3FA029907F0E0FA011C381CEA
:1099900006F05AFF311C071C281C07F0D7FA019962
:1099A00007F0D4FA011C381C06F04EFF0299061C81
:1099B000281C07F0CBFA0199051C201C07F0C6FAF9
:1099C000011C281C07F0E2FB311C09F0A7FD0D4922
:1099D00007F0BCFA09F07CFA0B4A0C4B08F038F996
:1099E00009F0C8FA0021041C06F00EFE002804D07D
:1099F000201C044906F028FF041C201C07F062FD0F
:109A000005B0F0BD0000B443EA2E4454FB211940D8
:109A100070B50022102104000CF062F91B4D0028E3
:109A20002DD1032608212000FFF722FFA84226D0CF
:109A3000304226D1FA216389890059435023144AC0
:109A4000D518D058884204D3D518083B18000830E0
:109A5000F7D1FA212868890006F04EFCA022608127
:109A6000112120000CF03CF9002808D101222B79AB
:109A700010211A4320000CF033F9002800D00348CD
:109A800070BD6420FFF7FEF8CCE7C0460EFCFFFF78
:109A9000C0950200F0B50426847985B005003440F5
:109AA00015D102270CF02AF9AB790622BB433343C8
:109AB000AB71A988012368460BF04DFFAB792000FC
:109AC0001A00B243AA713B4202D1024800E00248A8
:109AD00005B0F0BD14FCFFFF15FCFFFF10B5837946
:109AE00004005A070DD49B0701D4FFF7D3FF236C62
:109AF0002000002B02D0FFF70DFF10BDFFF7CAFEBC
:109B0000FBE70148F9E7C04615FCFFFF70B5466C5E
:109B100086B001AC050001916260A360002E0CD0FC
:109B20000B4905A8FFF7FCFA0C23220005A9300019
:109B30000CF0A0FE05A80BF074FE2B000C3307CC34
:109B400007C30223AA791343AB7106B070BDC046A8
:109B5000A7A30200642330B504000281438185B0CD
:109B60008180FFF755FF0222A379606C9343A371B4
:109B7000002813D00C490CF048FE051E0ED0010041
:109B80000C22103101A80FF05CFB20000199029A11
:109B9000039BFFF7BBFF2800FFF7D6F90123A2794B
:109BA0001343A37105B030BDA7A30200F7B500931E
:109BB00008AB1B880400019309AB1D8800230F002C
:109BC00016000D4A8380083283710260C36003610E
:109BD00043618361C36103621D2124300CF073F87B
:109BE000009BE7632664290020006364019AFFF765
:109BF000B1FF2000FEBDC04618960200F7B5002553
:109C000004000F001E000D4B858008338571036032
:109C1000C560056145618561C56105621D2124300E
:109C200001920CF050F8E763256465643100200070
:109C3000019AFFF78FFF2000FEBDC0461896020074
:109C400082B0F0B50400A3B06420299328920FF0ED
:109C5000F0F804220C2107A802F002FC2422C749D4
:109C600019A80FF0EEFA052204A811000DF0BFFEAE
:109C7000C34905A802F09EFCA06800F07BFBA56824
:109C8000C04916A8FFF74CFA782216A9280000F060
:109C90000FFC16A80BF0C5FD6E256420013D0FF0EA
:109CA000C8F8002DF9D1A06800F064FBA0680CF0A2
:109CB0001CFA012160680BF04FFF0121070060686A
:109CC0000BF05DFF06000A200FF0B3F80022AE4B48
:109CD00002929F4210DB013202923A00C8320BDB43
:109CE000C822042192000291974205DC03220292CD
:109CF000C82F01DC013A029200279E420CDB3300A0
:109D00000137C83308DBC82303379B009E4203DCBE
:109D1000013FC82E00DC013F04A80DF05FFE0026C5
:109D200019AB9A199178002905D0995D5278FF23D3
:109D300004A802F0D5FB0336242EF1D16B463AB2CB
:109D40000821595E04A8FF2302F0CAFB0023A06883
:109D5000009374301A0004A90DF050FE19AE337848
:109D6000029A934234D17378BB4231D1B3780393D2
:109D7000002B2DD1190020680BF0F1FF07F0C2FB7A
:109D8000039A031C290007A80CF0E9FF0399206837
:109D90000BF0F7FF07F0B6FB0122031C290007A810
:109DA0000CF0DDFF039920680BF0FDFF07F0AAFB24
:109DB0002900031C022207A80CF0D1FFFE23290072
:109DC0009B05032207A80CF0CAFF01230135B370DD
:109DD000033622ABB342C2D164200FF02AF80B2D18
:109DE00000DC66E707A80CF0A6FF012201000AA824
:109DF00002F036FB002507A80CF09DFF85423CDAF7
:109E00002900002207A80CF098FF0022061C290058
:109E100007A80CF092FF011C301C07F097F82900EE
:109E2000061C012207A80CF088FF0122071C29004C
:109E300007A80CF082FF011C381C07F087F8311CC2
:109E400006F002FD2900061C022207A80CF075FF8F
:109E500002222900071C07A80CF06FFF011C381C08
:109E600007F074F8311C06F0EFFC2900031C0022F7
:109E70000AA80CF074FF0135BDE707AA1100012301
:109E800016A80CF086FF16A90DA80CF0E0FF16A886
:109E90000CF076FF0AAA07A910A801230CF079FF9D
:109EA000002310AA0DA913A80CF073FF002213A819
:109EB00011000CF042FF0022061C012113A80CF037
:109EC0003CFF0022051C022113A80CF036FFFC21E8
:109ED000071C8905301C07F039F807F0F3FAFC215C
:109EE000060016908905281C07F030F807F0EAFAFA
:109EF000FC21050017908905381C07F027F807F0AA
:109F0000E1FA2A000300310018902068FFF7FEFDF7
:109F1000A0680CF0EAF805A906A8A5680DF056FDA2
:109F200000221A4B009206A901932800130000F0AA
:109F300063FA06A80DF03DFDFA2080000EF079FFCF
:109F4000A0680CF0D2F813A80CF01AFF10A80CF0BF
:109F500017FF0DA80CF014FF0AA80CF011FF05A8BC
:109F60000DF027FD04A80DF024FD07A80CF008FF54
:109F700023B0F0BC08BC02B01847C046B2A3020030
:109F8000D6A302001BA40200E0FCFFFFDC050000DA
:109F9000F0B58360204B85B01F680500016042600A
:109FA000002F36D02820FEF7AFFF040010300BF052
:109FB000C7FC05232380013363801820FEF7A4FF2C
:109FC000164B06000293002320C6190001901022B0
:109FD000300003930FF050F9082202A930000FF06F
:109FE00030F90F4B019A210053610023E360C23323
:109FF000A3800023A260236263623B6838005B6831
:10A000009847002805D020000BF0C1FB2000FEF788
:10A010009BFF280005B0F0BDC4260020419C010034
:10A02000BF5D0200F0B5040085B0637A9C46002B4A
:10A0300004D120000BF0EDFE05B0F0BDA37A266F31
:10A0400001931023019AF35600259B1801229A4090
:10A050002900F36802920393039B9D4231DAB368AF
:10A06000019A6B439B1872695B00E77AD3181A78E0
:10A070005878E379012F14D15F1E3F1A10003A007F
:10A080005B004343606F8218D3189B79634500DD02
:10A090006346627B1A4202D00123AB40194301356B
:10A0A000DAE7022F05D15F1EBA1A277A013F381A64
:10A0B000E6E7032FE4D1277A013FBF1A02003800F8
:10A0C000DEE71123C943F356606C994023691940B8
:10A0D000029B19430EF0B8FFA37B072BACDC627B1D
:10A0E000581C520062730B499A00A073022B03DCC8
:10A0F00088580EF093FE98E7074B20002363002357
:10A100006363064B8958E462236414300EF084FDC7
:10A1100092E7C0463096020025A00100FF5D0200D4
:10A1200010B50400044B03600EF06EFD200005F036
:10A13000B3FA200010BDC046A09A020010B504007A
:10A140000E4B08330360FEF7DDFF200074300DF086
:10A1500030FC200060300DF02CFC200058300BF05B
:10A1600060FB200050300BF05CFB2000044B1430EF
:10A170006361FFF7D5FF200010BDC0465096020076
:10A18000C49A0200F8B500250400324B85800833DC
:10A1900003608571143016000F0005F067FA200087
:10A1A0002D4BE562636125645030FEF7F3FF20001C
:10A1B0005830FEF7EFFF2000603002F08BF92000EE
:10A1C0000423F25E33682667590009B274300DF03B
:10A1D0000EFC3378226FE37173680126237210231B
:10A1E000E572A572A7802561D356916859188B42F4
:10A1F00004DA3000984001330543F8E711230120C9
:10A20000D356D16859188B4206DA02009A40266963
:10A21000013332432261F6E71420FEF775FE22690E
:10A2200000212A430123060005F012FBFF2262727F
:10A23000220000230125483266646573A3732373EB
:10A2400020001370A366FEF73FFFA37920001D4393
:10A25000A571F8BD50960200C49A0200F0B5437A89
:10A2600085B00400002B04D120000BF0D2FD05B016
:10A27000F0BD0122837A11009C461023066F002551
:10A28000F35603926344994001912900F3680293C5
:10A29000029B9D422CDAB36872696B4363445B0096
:10A2A000E77AD3181A785878E379012F10D15F1E16
:10A2B0003F1A10003A005B004343606F8218D318C6
:10A2C0009B79002B02D0039BAB4019430135DFE79C
:10A2D000022F05D15F1EBA1A277A013F381AEAE722
:10A2E000032FE8D1277A013FBF1A02003800E2E7C6
:10A2F0001123C943F356606C994023691940019BAF
:10A3000019430EF0A1FE667AB31EDBB2FC2B14D803
:10A31000FEF788FE0B4B0500236300230A486363A6
:10A320000A4BFF21E4622364704306F06FF82900B2
:10A330004143200014300EF06FFC637A012B00DDE6
:10A3400095E791E7135E0200B6030000FF5D02008F
:10A350001FB5012381881A0068460BF0FCFA01231F
:10A3600003491A0068460BF0F6FA05B000BDC04676
:10A37000FE0300001FB5030048331A780400002ACA
:10A380000DD000221A70012381881A0068460BF054
:10A39000E2FA012304491A0068460BF0DCFA2000B7
:10A3A00074300DF01BFB1FBDFF03000010B54830DB
:10A3B0000378002B06D00378012B03D0012102483B
:10A3C0000BF05BF910BDC046FF03000010B5012182
:10A3D000040006200BF051F9064B984208D148348E
:10A3E0002378002B04D02378012B01D020BFF7E77E
:10A3F00010BDC04616FCFFFF73B5079C0500002C7E
:10A400000ADB060048363078002807D0307801286B
:10A4100004D00C4C200076BD0B4CFBE76846007E58
:10A420001BB20090280012B274300DF0E7FA002C35
:10A43000F0D02B004A331C80002407234C352C809D
:10A440003370E7E712FCFFFF17FCFFFFF0B587B0A2
:10A450000D9C06000F0002920393002C20DBFFF7F7
:10A46000A5FF330048331D78EDB2002D1AD1390015
:10A4700005A80DF0ABFA0C9B01940093029A039B84
:10A4800005A93000FFF7B8FF05A80DF092FA002CDF
:10A4900003D03000FFF79AFF2C00200007B0F0BD7A
:10A4A000014CFAE7014CF8E717FCFFFF11FCFFFF36
:10A4B000F8B50400171E09DD060048363378002B76
:10A4C00006D03378012B03D00C48F8BD0C48FCE7CC
:10A4D0002200E3795632013B13702300002520004F
:10A4E00054331D8050300BF0F9F923004A331F809C
:10A4F00002234C34258028003370E6E712FCFFFF6E
:10A5000017FCFFFFF7B505000F00161E18DDFFF75B
:10A510004DFF2B0048331C78E4B2002C12D13900D7
:10A5200001A80BF0D3F9320001A92800FFF7C0FF02
:10A5300001A80BF076F92800FFF748FF2000FEBDC8
:10A540000148FCE70148FAE717FCFFFF11FCFFFF99
:10A55000FF2902D84172002070470148FCE7C0463D
:10A5600017FCFFFFF0B51F0085B00AAB1B78040095
:10A57000039300933B000D0016000EF023FC00280F
:10A5800033D0237D082B2DDC236800221900FC31F9
:10A590008A62A021C9005A50154905205A50013835
:10A5A000C046C046C046C046C046C046C046C0467B
:10A5B000C046C046C046C046F1D1236801325A5059
:10A5C000A0220521D200995005F0B6FC039B320071
:10A5D000009329003B0020000EF0F4FB237D0133A3
:10A5E0002375CCE7034805B0F0BD2075FBE7C046F6
:10A5F000FC0F00000EFCFFFFF0B51F0085B00AAB9A
:10A600001B780400039300933B000D0016000EF02E
:10A61000C1FB002833D0237D082B2DDC23680022CA
:10A620001900FC318A62A021C9005A501549052041
:10A630005A500138C046C046C046C046C046C04613
:10A64000C046C046C046C046C046C046F1D1236899
:10A6500001325A50A0220521D200995005F06CFC1D
:10A66000039B3200009329003B0020000EF092FB78
:10A67000237D01332375CCE7034805B0F0BD207579
:10A68000FBE7C046FC0F00000EFCFFFFF8B50D1EF7
:10A6900030D000260227C468002C28D0AA88A388BE
:10A6A00053403B4204D13A4204D1AB883B4219D0DB
:10A6B000646AF1E7A968A0680CF02CFB0028F4D0CC
:10A6C0002B88002B02D022889A42F1D16B88002B74
:10A6D00002D062889A42EBD1A288074B013613431D
:10A6E000A380E5E7A368AA689342E1D1E8E72000E8
:10A6F000002E00DC0148F8BD0080FFFF17FCFFFFC3
:10A70000F0B5060085B00D1E5CD00127C468002C92
:10A7100022D00221AA8800230A4202D0A3885B0823
:10A720003B40226829688A4207D1002B07D0A968DC
:10A73000A0680CF0EFFA002805D1646AE7E7A36887
:10A74000AA689342F9D1A3881AB2002A02DA5B04FC
:10A750005B0CA3801C480BE0F1682A880F000B1EDD
:10A7600008D1F5600123194968460BF0F4F8002080
:10A7700005B0F0BD1888904205DA586A1F0000281D
:10A780000ED00300F6E718003B000488944207D17E
:10A7900047886C88A74203DA446A0300002C0BD177
:10A7A00099420BD10888824204DB07D14C88688823
:10A7B000844203DD6962D4E72000E6E7596A6962F2
:10A7C0005D62CFE70248D3E716FCFFFFFD03000000
:10A7D00017FCFFFF064B10B51A00040008322C339B
:10A7E000026043600430FEF7C3F9200010BDC0468C
:10A7F0006896020008B4024B9C46043808BC6047C7
:10A80000D5A7010008B4024B9C46043808BC604739
:10A810002B6202000C4A002311002C32083110B5C3
:10A82000038183724260C3600361436143830160BB
:10A8300004000430FEF78EF9044B1A68002A00D198
:10A840001C60200010BDC04668960200C42600208F
:10A85000F7B50E000125C4680192002C36D023887C
:10A8600032889A4201D0002B2AD1638872889A429A
:10A8700001D0002B24D1FEF7E1F80123002806D0F7
:10A88000C022A3881340C03B5A425341DBB2019A15
:10A89000934214D1A7883BB2002B10DB1022310069
:10A8A000A0180EF0CEFC40231F420BD1FEF7C6F8D5
:10A8B000002807D021000648FEF770FA00E00025C6
:10A8C000646ACAE720000BF0B9FCF9E72800FEBD76
:10A8D0003D62020008B4024B9C46043808BC604745
:10A8E000C5630200F0B587B001930EAB1B8806006C
:10A8F00003930D9B0D000093019B02920C9F002B74
:10A900003ED0002F02D1009BDB0739D52820FEF76F
:10A91000FBFA040010300BF013F86B461B892580FE
:10A9200063801820FEF7F0FA049707000500009BEB
:10A9300010220593019B002108C738000EF09CFCF3
:10A94000082204A938000EF07CFC0E4B02226B6139
:10A950000023A5600399E3602362636233680A43BE
:10A96000A2805B68210030009847002806D02000B4
:10A970000AF00DFF2000FEF7E7FA034807B0F0BD2C
:10A980000248FBE7FF63020016FCFFFF17FCFFFF16
:10A99000F0B50400160000258380164A164B857119
:10A9A0000260218146810573186889B08C46A842EF
:10A9B0001DD0124A05950492C02202926A4604AB49
:10A9C00082CB82C2614623002A00FFF78BFF0B4A2D
:10A9D000094B0692C022186802926A4606AB079598
:10A9E00082CB82C223002A003100FFF77BFF2000C8
:10A9F00009B0F0BDAC960200C42600202965020013
:10AA000030B5002403730123034D847105608180F8
:10AA100082734373846030BDC496020070B5040035
:10AA200000250D4B0E0008338580857103602100E1
:10AA300018300BF033FE2000210020300BF051FEC7
:10AA4000064BA680A571E5712572E56025616561FB
:10AA500020001C6070BDC046D4960200CC260020A9
:10AA60008379DB0702D5C160002070470048FCE70E
:10AA700016FCFFFF8379DB0701D5C06870470148EA
:10AA8000FCE7C04616FCFFFF70B545690400002DC9
:10AA900020D0037A032B1FDCFFF7ECFFA8622C20E9
:10AAA000FEF732FA2C22002105000EF0E5FB002310
:10AAB000626953622369002B07D122610020237A47
:10AAC00065610133237270BD0B00596A0029FBD107
:10AAD0005A62F3E70148F6E70148F4E717FCFFFF85
:10AAE00013FCFFFF144B70B55A68144C002A03D0B6
:10AAF00000225A600132A2601A69002A17D0002190
:10AB000019618023DB00E3580D4D012B10D1A923DF
:10AB1000DB00E15828684942FFF7A2FF2868FFF7E9
:10AB2000B3FF2B685A69074BE2500123A36070BD45
:10AB30002868FFF795FFF8E7FC1000400010004080
:10AB4000CC2600200405000003000069002809D07D
:10AB50000221054AD167426A1A611A7A013A1A72C9
:10AB6000024B19607047C04604E100E000E100E0DC
:10AB70000223024A11780B4313707047BE2900204C
:10AB80000221024A13788B4313707047BE290020BC
:10AB900010B5002903DB024B19600EF0ADF810BDB3
:10ABA000D026002070B504001E0004AB1D7804F010
:10ABB000DBFD20000E4B40302360FEF7EBFA230054
:10ABC00001364C33013522001E701D730023E12134
:10ABD0004E32A3646365138053809381D381013B1C
:10ABE000200063644902FFF7D3FF200070BDC04618
:10ABF00010950200F0B5060007005C365A3733881E
:10AC00003A8885B004009A421ED0104B1B781B076F
:10AC10001AD53388426DD15C0EF084F82300308859
:10AC200058331978013005F0D7FC3B888DB2AB4220
:10AC300009D107490123022268460AF08CFE01214E
:10AC400020000BF08EFD358005B0F0BDBE29002040
:10AC5000FF03000070B5114D04002B781B0705D5CC
:10AC600001210BF07EFD606DFEF76EF908262B7852
:10AC7000B3432B70230058331878FEF745F960650D
:10AC8000002809D0230000205A3318802B785C3428
:10AC90001E4320802E7070BD0148FCE7BE290020B5
:10ACA00013FCFFFF73B50D0006A9040009780430FA
:10ACB000002A01D1DE0701D5002D01D1002209E0D3
:10ACC00018264E430C34A41962600122A360034B82
:10ACD0002560636105F024FA73BDC0460D6702006C
:10ACE000F0B58BB00593030007000400002558332E
:10ACF00006930433039104925A370793049B9D42B1
:10AD000011DA069B3E881978701C05F065FC079BDC
:10AD100089B21B88994206D0039B626D5B5D013549
:10AD200093553980EAE7059B012B03D002210748A0
:10AD3000FDF7D2FF012320000093054A00232100E4
:10AD4000FFF7B0FF28000BB0F0BDC046FF030000C6
:10AD5000F5AB0100F7B5194C1F00237805000191F0
:10AD600016009B0725D4002A25DD002923D0FFF7F4
:10AD7000FFFE23781B0712D50024019B321B1919F3
:10AD800028003B00FFF7ACFF3900241828000BF027
:10AD9000D8FC002F0AD12800FFF7F2FE04E02800BB
:10ADA000FFF758FF041EE7D02000FEBDA642E4DCFA
:10ADB000F1E7034CF8E7034CF6E7C046BE29002054
:10ADC0000DFCFFFF17FCFFFFF7B580277F053D69EE
:10ADD0007C690822113C6C430600210068460EF095
:10ADE00030FA104B009A9A4219D000930023019335
:10ADF00079693000133969430BF0C2FC019A00995C
:10AE000030000BF0D5FC210030000BF0B9FC796963
:10AE1000AB0813396943220030000BF0BBFC0198EA
:10AE2000FEBDC046FECA0000F0B50D00ABB00D92ED
:10AE300000213022060012A80B930EF01DFA280004
:10AE40000EF05AFA431C0C93102B00DDB7E00B9B5D
:10AE5000202B00D9B3E0290030000BF0D6FC071EF0
:10AE600056D129000C9A12A80EF0EBF90D990B9A05
:10AE700016A80EF0E6F980235B051F695A693000B9
:10AE8000113A7A435D690D92FFF79EFF0D9B3022C8
:10AE90000833002104001EA80F930EF0EDF92900DD
:10AEA0001339794330000BF06BFC0F9B0B9300239D
:10AEB0000C930E930C9BA34249DA0B9930221EA8E7
:10AEC0000EF0BFF912A91EA80EF00CFA00282DD121
:10AED0003D4930002200109111940BF069FC6A4644
:10AEE0000B9B099315AB23CB23C223CB23C223CBCC
:10AEF00023C23000149B1299139A0BF067FC0123B4
:10AF00000E930B9B30330B930C9B01330C93D1E7C7
:10AF100010300B9A0D990EF085F904003800FEF7F9
:10AF200013F8002C9DD120002BB0F0BD6A460B9B7E
:10AF3000099321AB23CB23C223CB23C223CB23C230
:10AF400030001E991F9A209B0BF040FCD9E7E54387
:10AF50003021ED1725404D430F9B5D190E9B002BB3
:10AF60001BD1B81E05F0C8F984422AD01649013415
:10AF700030002200109111940BF01AFC6A460995DA
:10AF800015AB23CB23C223CB23C223CB23C2300058
:10AF90001299139A149B0BF019FC0D9930000BF0C9
:10AFA000EFFB80235B0559690C236343133902339C
:10AFB00079430D9A30000BF0EDFB0024B3E7034C0E
:10AFC000B1E7034CAFE7C046FECA000017FCFFFF25
:10AFD00013FCFFFF70B50400A280FA2200230800D2
:10AFE0000C49920008312160A3716061E260A360A6
:10AFF000638209490BF009FC051E09D001002000FD
:10B000001031022212300EF01CF92800FDF79CFFCF
:10B01000200070BDEC96020029A4020030B5022584
:10B02000837987B004002B4204D1FDF793FDA37907
:10B030001D43A57120000BF02EFC00281CD06B4690
:10B04000DD1C28000BF01EFC2B78002B17D001A86C
:10B050000BF016FC0321019AD3170B409B189B1091
:10B060002382FEF719F8E368A18818180123A0606D
:10B070001A0002A80AF06FFC002007B030BD0122C0
:10B08000064B1A60064A51680029FCD00021516025
:10B09000044A1268019201225A60DBE700C00040B6
:10B0A000FCC0004008C50040022802D10122014B2B
:10B0B0001A707047BF29002070B5064C0500237830
:10B0C000002B04D1044801F089FC012323702800DF
:10B0D00070BDC046C0290020A9B0010070B50C00A9
:10B0E0000AF059FA002810D00023144DA40A2B703E
:10B0F00020000BF0E4FB002803D00A200DF099FE9D
:10B10000F6E72B78002BFCD070BD02210C4B0D4ACA
:10B1100099508021C90008005D58002DFCD0A12164
:10B12000C9005C5019580029FCD000219950802199
:10B13000C9005A58002AFCD0E6E7C046BF290020C3
:10B1400000E0014004050000F8B50C0015001E00E9
:10B150000AF021FA002811D00023174F3B7032006B
:10B16000290020000BF0A9FB002803D00A200DF0D5
:10B1700060FEF4E73B78002BFCD0F8BD01210F48BE
:10B180000F4B844619508021C9005A58002AFCD020
:10B1900080270022FF00964207DD9100685860502A
:10B1A000D9590029FCD00132F5E7002261465A50F6
:10B1B000DA59002AFCD0E0E7BF290020040500008E
:10B1C00000E0014010B50400054B083303601C305B
:10B1D0000AF027FB200018300AF023FB200010BDE6
:10B1E00004970200FF23F0B52B4D8DB02B70002388
:10B1F000040069460088009303F0ECFB002802D1AC
:10B200006B469B782B70254E3368DB68002B07D18B
:10B21000002320881A0019000BF055FB0DB0F0BD7B
:10B220002B78032BF4DC1E4901A8FDF779FF336866
:10B2300001A9DE6804A80AF049FB04A930000BF05C
:10B2400013FB060004A80AF0ECFA371E1ED03100EA
:10B250002022103104A80DF0F4FF3000FDF774FE39
:10B26000297804ABC9005918082202A80DF0E9FF9B
:10B2700020880123082202A90BF025FB01270028C2
:10B2800004D12088074A0C210BF01BFB01A80AF00F
:10B29000C8FA002FC2D1BBE7F0210020E026002031
:10B2A00039A40200FFFF0000F0B5837991B00400DB
:10B2B0005B071BD5FDF7F0FE00232269801A994138
:10B2C000994203D1F423FF3398420FD9A068002894
:10B2D00008D0364B1D8801F07BFA036815221B6AE3
:10B2E000290098470422A3799343A371A3799B076C
:10B2F00059D52F4D2B68DB68002B50D02D4B1B7878
:10B30000032B4CDC294B2C491B8804A80193FDF727
:10B3100007FF2B6804A9DE6808A80AF0D7FA08A975
:10B3200030000BF0A1FA070008A80AF07AFA02AB85
:10B330009E1D08233200338006A9073B01980BF0BD
:10B34000C4FA002F08D039002022103108A80DF0CF
:10B3500078FF3800FDF7F8FD164B32881B7806A9F8
:10B36000DE0008AB9E1930000DF05CFF002813D002
:10B37000082206A930000DF064FF2B6804A9DD68DF
:10B3800005A80AF0A3FA202308AA05A928000BF0B3
:10B3900071FA05A80AF045FA04A80AF042FA022256
:10B3A000A3799343A37111B0F0BDC0466829002072
:10B3B000E0260020F021002039A40200F7B50400A7
:10B3C00000250192C77FBD4251DA66197078884224
:10B3D00018D1152927D801228A402748024222D0B5
:10B3E000F91801201F291DDCE1193718B9420ED8C0
:10B3F00000218B420FDD019A7018575C0131877074
:10B40000C9B2F6E7605D2D180135EDB2DBE70878CB
:10B41000C8540139EAE7625D9A186255E27F9B18C9
:10B42000E3770020FEBD655D013DEDB2AB4209D181
:10B430000023AB42F5DA019AF118D05C0133887031
:10B44000DBB2F6E7DF197F1B01201F2FEADC0227A2
:10B45000A81C7F4236187F1BE07F2218964203D239
:10B460003078F0550136F7E7451B023DE577019A44
:10B4700020000BF074FAD5E7FC002000F0B585B091
:10B4800001930AAB1E880BAB1B78451C02930EABD5
:10B490001B78040003930B78170003704B8A10226B
:10B4A0004382013128000DF0CCFE6B469B88268339
:10B4B00063836B461B7B002623776B4601221B7A36
:10B4C0006761E683EB77A31CDA7724210C9B0C25BC
:10B4D00063622300200004AA5218127828331A70DD
:10B4E0005E709E702A0031002C300DF0C5FE2000E9
:10B4F000064BE663A3632A00310040300DF0BCFE2A
:10B500002000034B2665E36405B0F0BDE16802004E
:10B51000D368020070B50D0001F05AF90400036809
:10B52000002D09D15B699847FA20800068430749DC
:10B5300004F0E2FEE08070BD9B6898478542F3DA34
:10B54000236820009B6898470500EDE77102000022
:10B55000F0B507001600A1B002C70400684918A89A
:10B560001D000BF02EFA301E01D00DF0C5FE012299
:10B570000492002283B2039202920232019200935B
:10B58000320018A93800FFF779FF23005D495833CE
:10B5900018A807930BF015FA281E01D00DF0ACFE89
:10B5A00001220492002283B203920292023201929B
:10B5B00000932A0018A90798FFF760FF230052495B
:10B5C000AC3318A808930BF0FCF92698002801D09A
:10B5D0000DF092FE01220492002283B203920292A5
:10B5E000023201920093269A18A90898FFF746FFA5
:10B5F000631CFF33454918A809930BF0E2F927981B
:10B60000002801D00DF078FE01220492002283B2BE
:10B6100003920292601C023201920093279A18A9A9
:10B62000FF30FFF72BFF23005533FF33384918A8AD
:10B6300009930BF0C6F92898002801D00DF05CFEA4
:10B6400001220492002283B20392029202320192FA
:10B650000093289A18A90998FFF710FF2300A9332F
:10B66000FF332C4918A80A930BF0ABF9299800284E
:10B6700001D00DF041FE01220492002283B2039218
:10B68000029218AD023201920093299A29000A9879
:10B69000FFF7F4FE204B1B780B93002B2DD1079B5B
:10B6A00012971393089B0DAF1493631CFF331593EC
:10B6B000099B1A4916930A9B380017930BF081F9DE
:10B6C0001D2149203B7810222B707B8A12AE6B82A1
:10B6D00006ABC918C0180DF0B4FD06232B756B46D8
:10B6E0009B8D2068AB83AE6101F082F8036829006E
:10B6F0001B6898470122084B1A70200021B0F0BD4A
:10B70000292A0000242A0000252A0000272A0000F8
:10B71000262A0000282A0000C12900200A1800005B
:10B7200070B5002504000A4B8580083385710360DD
:10B73000C1601830FDF72EFD20001C30FDF72AFDFA
:10B74000044BA5601C60012365612000A37170BDDE
:10B7500004970200E0260020FA2130B585B00500EC
:10B7600001230222890068460AF0F5F8074C206898
:10B77000002809D00BF05EF92988054B2268198052
:10B78000022391790B43937105B030BDE026002070
:10B790006829002010B50C0007290AD8806801F03C
:10B7A00017F8064B195703685B6C9847002802D1BD
:10B7B00010BD0348FCE70348FAE7C04631A4020085
:10B7C00017FCFFFF16FCFFFFF0B5A54C0D00A544CC
:10B7D000040007939AAB1B78A24909A80493069228
:10B7E000FDF79EFC200029001C300AF077F8C020ED
:10B7F000800001F0E9F80820FDF786FB0700002132
:10B8000000F0AEFF15AD0021A7600C220EA80DF0D0
:10B8100033FD2B000EAA43CA43C3934B2900EB60B0
:10B82000002338002B610CF075F9A06800F0D0FF00
:10B830000C220021059028000DF01EFD1420FDF7BC
:10B8400063FB8A4B2A0015930300C2CAC2C3884B0C
:10B85000059EC3600023A43603613368002B00D02B
:10B86000F7E03060A06800F0C3FF0C220021060062
:10B8700028000DF001FD1420FDF746FB7D4B1593CC
:10B88000030086CD86C37C4BC36000230361336B0A
:10B89000002B00D0DFE03063A06800F099FF15AD09
:10B8A0000C220021060028000DF0E6FC1420FDF714
:10B8B0002BFB724B98361593030086CD86C3704BD5
:10B8C000C360002303613368002B00D0C5E001256D
:10B8D00004AB1B7C04AA2B43306008A92800137416
:10B8E0000AF0F5FFA06800F093FF036865495B6A02
:10B8F0009847A06800F08CFF036863499B699847EC
:10B90000A06800F085FF0023026800931668049980
:10B910002A00B047049B002B0AD020000BF093F8BC
:10B92000032805DDA06800F073FF0368DB68984713
:10B930000EA80BF00BF82F2004ABC0180BF006F884
:10B94000362004ABC0180BF001F83D20042504ABF1
:10B95000C0180AF0FBFF0EAB0A93A06804AB5D773A
:10B9600000F056FF03680AA91B699847A06800F019
:10B970002FFF03680AA95B6D9847A06800F028FFB5
:10B9800003680021DB6D9847A06800F021FF036881
:10B9900002219B6D984700212000FFF7FBFE182035
:10B9A000FDF7B2FAA16800F007FA384B384A1B6875
:10B9B000A1680393374B15A81B680CAE0293364B56
:10B9C00000271B680193069B1B685B190093334B90
:10B9D00012681B68FFF7BCFD3020FDF795FA079A47
:10B9E000A16800F0AFFAA06800F0F2FE0368310031
:10B9F0009B6A98470823A0683380DB187380B78060
:10BA000000F0E6FE03683100DB6A98472900A06871
:10BA10000AF0E3FF099A09219378A06852190AF005
:10BA2000EFFFA06800F0D4FEC8210771A068FFF7FF
:10BA300071FD04AB1B7FBB4204D0A06800F0C8FEC0
:10BA40000AF0B5FF09A809F0ECFE95239B009D4480
:10BA5000F0BD036105E703611DE7036137E7C046F9
:10BA6000ACFDFFFF2CA50200EF68020059B70100F2
:10BA7000FD680200E5B101000B69020039690200AE
:10BA800019690200A1BA0100D5BA0100DC26002024
:10BA9000D826002008200020D42600200C200020DA
:10BAA00013B506226846FDF74BFB094B1C68002CBA
:10BAB0000AD0694601A809F009FF200001A90AF08F
:10BAC000E3FF01A809F0ADFE684609F0AAFE13BD28
:10BAD000E0260020002373B501AE0C003100050004
:10BAE000019302F077FF002802D1B278064B1A705A
:10BAF000064B1868002806D061426141044BC9B268
:10BB00001D800AF0C9FF73BDF0210020E02600204F
:10BB100068290020F0B5070097B0029107A89D4959
:10BB20000592FDF7FDFA9C4908A8FDF7F9FA3A00DD
:10BB30000FAC20001C3207A909F0DFFE08AA210083
:10BB400009A809F0DAFE200009F06BFE93490AA863
:10BB5000FDF7E6FAB86800F03BFE036804255B6970
:10BB6000984720000AF0F2FE332004ABC0180AF018
:10BB7000EDFE3A2004ABC0180AF0E8FE412004AB09
:10BB8000C0180AF0E3FE0D9400240DAEB86875717C
:10BB9000347100F01DFE036831005B6D9847B86892
:10BBA00000F016FE036821009B6D9847B86800F00E
:10BBB0000FFE030006000A331F2221001800039322
:10BBC0000DF05AFB039B3000DC770AF0E7FE0621FC
:10BBD000B8680AF002FF099A09219378B8685219E7
:10BBE0000AF00EFFB86800F0F3FDC8210471B868D0
:10BBF000FFF790FCB86800F0EBFDFF260481B86801
:10BC000000F0E6FD0AF0D3FE0298FEF7B3FB0AA9A6
:10BC10000CA809F05BFE78220CA90298FEF772FCD2
:10BC20000CA809F0FEFD029938000AF048FF380020
:10BC3000FCF790FF0394049501257B691D402DD0EE
:10BC400057490BA800F0B6FC0BA90CA80BF0BEFEE0
:10BC500000220CA91300019200920298FEF7F6FB55
:10BC60000CA80BF0A6FE039B002B42D1043E282E0D
:10BC700041DD0025FE2E00DC039D05980AF016F834
:10BC8000002806D001237A699A431300049A1343CB
:10BC90007B6100240BA80BF08CFE03957B69049A52
:10BCA000134233D0FF210298C825FEF751FC00242F
:10BCB000AD00BB6902229B5E9C4222DA380021B2B1
:10BCC000183009F030FE0023010002981A00743089
:10BCD00000F0C0FC2800FCF7D5FF02980AF005FA36
:10BCE000C820FCF7CFFF02227B69134209D101343F
:10BCF000DFE70436BBE702980AF0F7F9002EBCDD57
:10BD0000BAE7FA208000FCF7BDFF002402237D691A
:10BD10001D421CD006331D4024D022490BA800F040
:10BD200049FC0BA90CA80BF051FE00220CA90192B2
:10BD3000009213000298FEF789FB0CA80BF039FE65
:10BD40001948FCF79FFF0BA80BF033FE174C64203B
:10BD5000FCF798FF164B01349C4200DC6CE709F0BD
:10BD60002CFC69E713490BA800F024FC0BA90CA8D4
:10BD70000BF02CFE2B002A000CA9019500950298CF
:10BD8000FEF764FB0CA80BF014FE0BA80BF011FEE1
:10BD9000DDE7C04645A4020055A4020057A40200F6
:10BDA00065A40200AAA40200983A00008C0A0000D0
:10BDB0008B0A0000E7A4020000225C4BF0B50833B8
:10BDC000060003600F001000A9B0B1600BAB99181A
:10BDD00001324870102AFAD10F3A554C1A700E32BF
:10BDE000105D991A0874013AFAD2997B5A7B0902BC
:10BDF0000A4331000C31039125211B7813AD2B70C0
:10BE000002ABC918452302A81B186A821800102229
:10BE10000DF017FA039B64216B610123002402AA31
:10BE20002B832B775218093313701DAB1C706D23B5
:10BE300002AA9B181C706E2321009B181EA80C22BE
:10BE40006C83EC836C621C700DF016FA394B0C227B
:10BE5000210023A8AB63EC630DF00EFA364B0322EE
:10BE6000EB64462302A95B18DA7722002C6505955E
:10BE7000347306AD2B1901345A70102CFAD10123FA
:10BE80002E482B700E33195CEA1A1174013BFAD25A
:10BE900011212520AA7B6B7B12020BAC13432A785D
:10BEA000638202ABC9182270C01810220DF0C9F9C4
:10BEB0000123237505ABA36100233800A38300F0A1
:10BEC00097FC036821001B68984713ABDB8BB068B5
:10BED000B38200F08DFC002203680092B18A039ABD
:10BEE000DC680123A047B06800F082FC0700142042
:10BEF000FDF70AF804000C2200210DF0BDF9002323
:10BF000020002361069340C00133082229000793D3
:10BF10000DF097F90A4BE360BB69002B03D13000A9
:10BF2000BC6129B0F0BD2361F9E7C0461C9702004F
:10BF300044A50200E1680200D368020054A5020093
:10BF4000216B0200F0B500260400764BDDB008330B
:10BF500003608160C260868086713200724947A8A2
:10BF60000AF07EFE23001433089301230493113357
:10BF700001930E3B0093089A330047A9039602965B
:10BF80001DA8FFF77BFA3200684947A80AF068FE4F
:10BF900001232200049307330193043B15AF1032B1
:10BFA000009347A933000396029632A8FFF766FA7A
:10BFB00032005F4938000AF053FE23001C33099316
:10BFC0000123049307330193043B39000093099A3A
:10BFD00033000396029647A8FFF750FA32005549FE
:10BFE00038000AF03DFE5420FCF78EFF2300183382
:10BFF0000793012305000493113301930E3B39008D
:10C000000093079A330003960296FFF737FA280049
:10C01000494BA5620822EC620AA930300A930B96BC
:10C020000DF00FF9454B0422AB63012329352B702A
:10C030002682668223690999E36107980DF001F968
:10C040000422079908980DF0FCF86622032304A93E
:10C050005218D377BA225218D37787225200521837
:10C06000D377A26AA685911CCB771DAB0C9332AB1C
:10C070000D930F9247AB3200314910A80E930AF08E
:10C08000EFFD30223121452004AB9B181B78123282
:10C090003B7004AB9B181B88323A7B8204ABC918F7
:10C0A000C0180DF0CEF804230CADA0683B75BD613F
:10C0B000BE8300F09DFB036839001B68984782220D
:10C0C00004AB9B181B885432238404AB9B181B8839
:10C0D0005432A38404AB9B181B88A068638400F0CF
:10C0E00087FB07001420FCF70FFF05000C2231002E
:10C0F0000DF0C2F82800134B2E6108221093119600
:10C1000010A910C00DF09DF80F4BEB60BB69B34256
:10C1100006D1BD612000FCF71DFD20005DB0F0BD23
:10C120002B61F6E72897020084A5020064A50200AF
:10C1300074A5020094A50200336C02009F6B0200FC
:10C14000A4A50200B5C10100C96B0200F0B504004E
:10C150000E00150085B000930CAB1B8810300193C6
:10C1600009F0EEFB268065801820FCF7CDFE070065
:10C1700002AE33003D000AAA03CA03C3009B10228B
:10C1800008C5002128000DF077F8310008222800AA
:10C190000DF057F8064B02227B6120000023019925
:10C1A000A7600A43E360A2802362636205B0F0BD2A
:10C1B000F36B0200F0B50B898DB00593CB680600D8
:10C1C00004934B88828C9A420ED1049C059B049A5E
:10C1D0001B1BD318032B3BDD62882188012308A891
:10C1E00009F0B9FB0434F1E7428C9A4230D1049C47
:10C1F000059B049A1B1BD318032B29DD23882820B9
:10C2000006936388F7680793124B089300230993FA
:10C21000FCF77AFEC0236A460500029308AB03CB05
:10C2200003C233000699079A2800FFF78FFF3B6887
:10C2300029005B6838009847002807D0002D05D0FA
:10C24000280009F0A4FA2800FCF77EFE0434CFE7AA
:10C250000DB0F0BDB16C020070B5040090B0806804
:10C260000AF021FD022101401AD1A38D002B17D025
:10C270000C4B6A4604931023E568A185059102934F
:10C2800004AB41CB41C20A00230006A8FFF75EFFC2
:10C290002B6806A99B682800984706A809F077FA3A
:10C2A00010B070BDB16C0200002815D00060416074
:10C2B0008260C360046145618661C761444604626F
:10C2C0004C464462544684625C46C46264460463DD
:10C2D0006E46466374468463002A06D0C46B043CF1
:10C2E000043A25681560B442F9D18C6BA6464E6BB2
:10C2F000B546002B06D0CC6B043C043B1D68256082
:10C30000B442F9D10C6BA446CC6AA3468C6AA2460F
:10C310004C6AA1460C6AA046CF698E694D690C69CA
:10C32000CB688A680868496870470060416082602D
:10C33000C360046145618661C761444604624C463E
:10C340004462544684625C46C462644604636E463A
:10C35000466374468463C46B043C043925680D60ED
:10C36000B442F9D1C76986694569046970470060BC
:10C3700041608260C360046145618661C761444673
:10C3800004624C464462544684625C46C46264461D
:10C3900004636C4644637446846304697047846B29
:10C3A000A646446BA546046BA446C46AA346846AA9
:10C3B000A246446AA146046AA046C76986694569DF
:10C3C0000469C368826800684168704710B5041E3C
:10C3D0000CD00CF091FF431EE3189C4208D2227847
:10C3E0001978013B21705A700134F6E7014810BDFD
:10C3F0000020FCE717FCFFFFF0B585B002900C1E93
:10C400002AD00023C217161A56400193019B300010
:10C410005D1C63190A215F1E039304F0DDF8494295
:10C420003031397030000A2103F0F0FF4742060036
:10C43000002F0FD1029B002B04DA2D23019D039ABC
:10C4400002351370002320006355FFF7BFFF38004B
:10C4500005B0F0BD0195D9E7004FF8E717FCFFFFE5
:10C4600010B582604A4304004160002A0ADD074B90
:10C4700090009A4201DD01204042FCF745FD20601A
:10C48000200010BD00230360FAE7C046FEFFFF1F37
:10C490004A688B6870B58360534304000D004260A6
:10C4A000002B12DD0A4A9E003000934201DD01207C
:10C4B0004042FCF729FD002320602A68D158C15072
:10C4C00004339E42FAD1200070BD00230360FAE7D6
:10C4D000FEFFFF1F014B03607047C04640970200FC
:10C4E00030B500684488A14206DA8588AA4203DA9A
:10C4F000002901DB002A01DA034830BD544340180B
:10C50000001983710020F8E717FCFFFFF0B5070062
:10C5100085B00E001D0000291FDD002B1DD0046812
:10C52000638803938B4200DD0391A38802939342B7
:10C5300000DD0292002306340193019B029A93428C
:10C540000EDA29002000039A0CF07BFE3B68AD193F
:10C550005B88E418019B0133EEE7024805B0F0BDAB
:10C560000020FBE717FCFFFFF8B504000D001600E4
:10C570001F00002901DB002A02DA0D4B2360F8BD01
:10C58000100048430630FCF7BFFC206009F02FFA8A
:10C5900023685D809E80002F06D03B00320029007A
:10C5A0002000FFF7B3FFEAE720000BF017FAE6E7F9
:10C5B00040970200F0B5060087B00D1E1BD000208A
:10C5C0000F000400010001903B78002B1FD03022A7
:10C5D000524294469C446246092A16D90A2B0FD12E
:10C5E000019B241801330193A14200DA21000020AD
:10C5F00004000137E8E7164B0360300007B0F0BDD8
:10C600000028F6D001340020F3E70120F1E76A4664
:10C61000928809B212B23000FFF7A6FF33689C1D62
:10C6200003AB1F002A78002AE7D01100303909290E
:10C6300003D81A7001330135F4E700221A70BB42A7
:10C64000F9D938000CF0DDFD3B0020700134F2E731
:10C6500040970200F0B587B0009004A815001E00B6
:10C660000F00FCF7DBFB009B1B685A8895422ADA17
:10C670009B88B34227DD1F2F25DD059B01939F4239
:10C6800021DC052300217B430193049B0293019B42
:10C69000029A5B18A03BD35C0022039373189C465C
:10C6A000009B57191B6858880400874202DA988853
:10C6B00060450ADC0132052AF2D101310529E6D1B3
:10C6C000002007B0F0BD0748FBE7DB1910276046E4
:10C6D000174160431B1803980740781E87417F422B
:10C6E0009F71E7E717FCFFFFF7B5036806009C1D85
:10C6F0005B880D005A1A0192002919DD0027994222
:10C7000003DB0BF06BF9002013E033689B889F423A
:10C71000F9DA6119019A20000CF093FD019B2900C0
:10C72000E0180BF04DF9336801375B88E418ECE74B
:10C730000048FEBD17FCFFFF10B50548054C206002
:10C7400009F058F9044A054920000CF04CFD10BDD1
:10C7500040970200E426002000200020B379020068
:10C76000002370B504000160436099420AD1064D70
:10C770002B68002B02D10BF026FC286023689B005D
:10C78000EB586360200070BDF826002070B50028CB
:10C790000DD10C4C2668002E07D108300CF011FD8D
:10C7A00005003100FFF7DCFF2560206870BD012225
:10C7B000054906480B681340F8D1026043600A60DF
:10C7C000F4E7C046EC260020E8260020F0260020F2
:10C7D000436810B50400002B02D104480CF030FB74
:10C7E000606803681B69984710BDC046B4A5020085
:10C7F000436810B50400002B02D104480CF020FB64
:10C80000606803689B69984710BDC046B4A50200E4
:10C81000436810B50400002B02D104480CF010FB53
:10C82000606803685B6A984710BDC046B4A5020003
:10C8300010B5040002F0E4FC034B1B68002B01D090
:10C840002000984710BDC04600270020F0B58DB0ED
:10C85000050001F0FFFE002000F0DEFB036807008A
:10C860001B6998473B6804009B69380098473B6800
:10C8700006005B6A380098470300288810380B28A8
:10C8800062D803F02FFD063E6161615B6161616703
:10C890006179AF88200039000BF0B9FD22006B7B75
:10C8A000583201931378A8799C46022361460B43C2
:10C8B000137006AB1F80012306AA9370D07013007B
:10C8C0006A461279E91D9A722B000622163307A8D0
:10C8D0000B930CF0B6FC29000B2006AB06220E31A0
:10C8E000C0180CF0AEFC94346368A360A068002804
:10C8F0002AD0C36806A99847A368002BF4D01B6907
:10C90000F3E720002F49AF880BF081FD22000220C1
:10C9100058321378A9798343137006AB1F8099703E
:10C92000A0346368A360A06800280DD0C36806A97E
:10C930009847A368002BF4D01B69F3E75B69A91D36
:10C94000002B01D0A8889847290030000BF03CFE4E
:10C950000DB0F0BD636EAF79002BF5D0A366A06E6D
:10C960000028F1D0C36839009847A36E002B01D18D
:10C97000636EF3E71B69F1E701220D27AB7BE91D2D
:10C980001A4001925A07920F0292DB08062206A86B
:10C99000EF5704930CF055FC6A46127906ABDA7136
:10C9A0006A46127A9F711A726A46127C20005A7285
:10C9B0002B008C340F3309938030236806A99847E5
:10C9C000C2E7C046FFFF00000723D72802D9024B69
:10C9D0001860002318007047FC260020014B1860E7
:10C9E0007047C046002700201FB5A3238022DB002C
:10C9F000D205D3580820DB0700D405301E4B48224F
:10CA00001E4901F0E5F800280AD080B2002807D1BD
:10CA1000BFF34F8F1A4A1B4BDA60BFF34F8FFEE70D
:10CA200002AC0822002120000CF026FC0123237018
:10CA3000154B20001B6863600BF08BF8002802D0B8
:10CA4000072004B010BD68460BF081F80028F7D12C
:10CA500069460BF07AF80028F2D10C4801F0E8F8AA
:10CA600080B20028EDD10A4801F0ECF880B200282D
:10CA7000E7D100F087FCE4E7577B020004270020A1
:10CA80000400FA0500ED00E0FC2600204DC801007E
:10CA900031C8010080B2002807D1BFF34F8F034A8D
:10CAA000034BDA60BFF34F8FFEE770470400FA05CF
:10CAB00000ED00E000487047FFFF0000F0B597B0C0
:10CAC0000593036807AD1B680491039311002B00C5
:10CAD000060091C991C30024D36821000C220CA840
:10CAE000EB602C610CF0C8FB22000B4B10940F93F1
:10CAF00011AB1C70191901344A70102CFAD15A82EA
:10CB00000193059B2A00009304990CAB3000039C11
:10CB1000A04717B0F0BDC046797C0200FC3070B56C
:10CB2000046C0500002C0DD124200CF04AFB064BB0
:10CB300044608361054B8460C46004614461C461E6
:10CB400003602864286C70BD1C98020004990200E0
:10CB5000FC3070B5C56B0400002D11D134200CF0F1
:10CB600030FB084B85604360074B45610361074B11
:10CB70000562C361064BC5628362064BE0630360D6
:10CB8000E06B70BD4C9802003C980200AC9802002B
:10CB9000BC980200CC9802007FB503791548002BA1
:10CBA0001CD0154E154C33782000002B16D102AD49
:10CBB00028000BF03EF8002815D16B88592B12D1B4
:10CBC0002B78AA88D91F01290AD800920C4A202163
:10CBD000200007F07DFF01233370200004B070BDFA
:10CBE0000092084AF3E72022074920000CF08BFB53
:10CBF000F3E7C046D7A50200E2290020C2290020A1
:10CC0000F1A502000EA6020033A6020010B5040032
:10CC1000024B08C00BF0F0F8200010BD3C98020059
:10CC200010B50400024B08C00BF0FBF8200010BD4B
:10CC30004C980200064B70B5040003604068002861
:10CC400004D005690CF0B9FA2800F8E7200070BD9F
:10CC50002C980200064B70B5040003604068002861
:10CC600004D005690CF0A9FA2800F8E7200070BD8F
:10CC70005C980200064B70B5040003604068002811
:10CC800004D005690CF099FA2800F8E7200070BD7F
:10CC90006C980200064B70B50400036040680028E1
:10CCA00004D005690CF089FA2800F8E7200070BD6F
:10CCB000AC980200064B70B5040003604068002881
:10CCC00004D005690CF079FA2800F8E7200070BD5F
:10CCD000BC980200064B70B5040003604068002851
:10CCE00004D005690CF069FA2800F8E7200070BD4F
:10CCF00050970200064B70B504000360406800289E
:10CD000004D005690CF059FA2800F8E7200070BD3E
:10CD100060970200064B70B504000360406800286D
:10CD200004D005690CF049FA2800F8E7200070BD2E
:10CD300070970200064B70B504000360406800283D
:10CD400004D005690CF039FA2800F8E7200070BD1E
:10CD500080970200064B70B504000360406800280D
:10CD600004D005690CF029FA2800F8E7200070BD0E
:10CD70001C980200FC3070B5046C0500002C0DD12D
:10CD800024200CF01EFA064B44608361054B84603E
:10CD9000C46004614461C46103602864286C70BD90
:10CDA0001C98020004990200104B10B50833036070
:10CDB0000F4B0400C36080230E4A5B00C250C018B2
:10CDC000FDF7AEF920000C4BB830E360FFF7B2FF7F
:10CDD0002000AC30FFF79EFF2000A030FFF78AFF55
:10CDE00020006C30FFF776FF200010BD3099020064
:10CDF00078990200C49A020090970200F0B50500ED
:10CE0000040087B0AC356B68AB60A868002807D019
:10CE1000C36821009847AB68002BF4D01B69F3E787
:10CE20002500B0352868002804D006690CF0C5F943
:10CE30003000F8E72200FC215832137828600B40BC
:10CE4000137023005C33187020000A300BF0B2F826
:10CE5000200034300BF0AEF8606E002804D0056975
:10CE60000CF0ABF92800F8E72500983560662868D3
:10CE7000002804D006690CF0A0F93000F8E728601B
:10CE80002500A4352E68002E05D0376930000CF03F
:10CE900094F93E00F7E72E6001AD31000C22280026
:10CEA0000CF0EAF923002A006C3383CA83C3094BD0
:10CEB000E667A3670C22310028000CF0DDF923009F
:10CEC000803307CD07C33000034A90341A602660D0
:10CED00007B0F0BD5D7C02004F7C0200444AF0B513
:10CEE0000600C260A022434B1636083303600100DF
:10CEF000002342820400320085B003718360037412
:10CF000083823531137001329142FBD1802580221A
:10CF10002000AD00D201F377358411000093383042
:10CF2000002300F0CBFD23002100403303931A00BF
:10CF30002B0000255F31157001328A42FBD1039A24
:10CF4000FC21D577220060321380137920000B403A
:10CF50001371230068331D70274B2567E3660C228D
:10CF6000002178300CF088F92300270088331D60F9
:10CF7000224B0837FB67843700210C2238000CF065
:10CF80007BF91F4B1F4AFB602300A0333D611A60F1
:10CF90001D4A5D60DA601D4A1D619A61DD613000E5
:10CFA0000BF008F803980BF005F8194B601CE360D0
:10CFB0002300C4331D705D709D70FF3002F056FB7E
:10CFC0008C235B00E55023001933FF335D61802320
:10CFD000104A5B00E250230001222000FE3352423F
:10CFE0005A86023B9D63DD631D6405B0F0BDC046FB
:10CFF0009097020030990200509702005D7C020079
:10D000004F7C020060970200709702008097020038
:10D0100078990200C49A020070B5074C2368002B6F
:10D0200007D1A02040000CF0CCF80500FFF756FF18
:10D030002560206870BDC0464C27002070B50C22CA
:10D040000D00002104000CF017F900232361024BAE
:10D0500025602000E36070BD6B7C020070B5002588
:10D060000400254B05710360244B45718360244BFC
:10D07000C5604361234B85610362234B4562C362F4
:10D08000224B05638363C56329004430FFF7D6FF55
:10D09000200029005830FFF7D1FF200029006C3014
:10D0A000FFF7CCFF1A4B2200236023008032F833B5
:10D0B00020C29342FCD126001D00E936FF3628002D
:10D0C0000822002108350CF0D7F8B542F7D18E239D
:10D0D0009B00E218002308C5AA42FCD18E22002141
:10D0E0009200A3540B4B0C4AE318A2181980023388
:10D0F0009A42FBD1200070BD7C9802002C9802005F
:10D100003C9802004C9802005C9802006C98020067
:10D11000049A02003A0200006202000070B500208A
:10D120000C00FFF779FF03685B6A98472378142B9C
:10D130001ED003D8132B0CD0002070BD152B1FD090
:10D14000222BF9D10369002BF6D06268108898472A
:10D15000F2E765680122AB7819005C0811402240B3
:10D160004468DB065B0F002CE6D02888A047E3E785
:10D170008368002BE0D06268917810889847DBE7DD
:10D180006468A27813091207120F012A03D0022A39
:10D190000DD0002106E0013BDBB20021022B01D8BB
:10D1A000064AD15CC368002BC6D02088E6E704217C
:10D1B000012BF7D00131022BF4D0EAE73BA60200A5
:10D1C000014B18787047C046E3290020F0B51D00D8
:10D1D0002F4B87B001921A78002307000C009A4267
:10D1E00004D102F041F8002803D00B23180007B047
:10D1F000F0BD002D0ED003A9222003950AF068FF90
:10D20000002807D006230828F0D0113843424341B4
:10D210000433EBE7002302AA1000137000F0DCFFD8
:10D22000011EE2D101251B4E2F4033782C40AB4329
:10D230003B43620002271C000720019BBC430340C4
:10D2400014431C22BB4094431C43347003AC103A7B
:10D2500020000CF011F809200F4B3100039302ABB2
:10D260000522C01827710BF0ECFF21000B4801F0DC
:10D270001DF8002807D007230428B7D0013B082851
:10D28000B4D00533B2E7024B1D700300AEE7C046D1
:10D29000E3290020F12100201DD10100E429002014
:10D2A00010B5074801F0D2F80023984206D00733A2
:10D2B000042803D0013B082800D00533180010BD16
:10D2C000E4290020002373B501930F4B01AD1B78B7
:10D2D0000E0029002B7001F07DFB041E05D00423F5
:10D2E000052800D00733180076BD3100280001F072
:10D2F00017F823000028F6D007230428F3D0013BB9
:10D300000828F0D00533EEE7E429002073B5104C6F
:10D310000E0005000522210068460BF092FF012E49
:10D3200003D0022E0FD002230BE002222378B34356
:10D3300093436946280023700AF0C8FE031E00D0FC
:10D340000B23180076BD012322781343B343F0E783
:10D35000F1210020094B10B51A7801000923002A99
:10D3600009D0074801F014F80023984203D0033392
:10D370000E2800D00333180010BDC046E32900205A
:10D38000E42900201FB502AC0822002120000BF088
:10D3900073FF282323806933FF336380E380803B5E
:10D3A00001A8FF3B05220C4903700AF0ABFE80B2D6
:10D3B00000280FD1802080000AF0A0FE80B2002853
:10D3C00008D120000AF09CFE80B2002802D10AF0A9
:10D3D00093FE80B204B010BD3EA60200024B0B606B
:10D3E000092313607047C04644A6020010B504002C
:10D3F0000020FFF711FE03681B6998470300F33311
:10D400001C7086235B00C05003000021044AFC33DB
:10D410005A61044A99615A62F4300BF0FDFB10BD69
:10D42000CD820200DF820200012110B5044A08000B
:10D4300001F022FB031E00D00B23180010BDC046D4
:10D44000EDD30100F0B5060093B000200C00FFF70B
:10D45000E3FD03685B6A9847FFF7B2FE06AB00285E
:10D460000ED000221A7105AA0692082218001A731B
:10D470000AAA9A60FFF76EFF002803D013B0F0BD30
:10D480001871187300232373237101933300BA3387
:10D490001B78019A9A4241DA07235343F218BB32B0
:10D4A0001278BB33022A31D10025F318029306AF5C
:10D4B0003B7B9D4223DAAB000393089BAA0099585B
:10D4C00002980AF007FE00281DD0237BAA009C4684
:10D4D000BB6899180293634608689A00A368D05005
:10D4E0006346013323733B7B5A1E954205D00C489B
:10D4F0001B1802989B001B580B6006AB1A73019B0C
:10D500000133DBB2C1E70135EDB2D0E72279206803
:10D510009100F31801320B502271F0E70020ADE7C3
:10D52000FFFFFF3FF0B50A7804009BB00D0002201A
:10D53000012A44D04B88032A3BD1A03B21499BB20E
:10D5400010008B423BD8204BAA8803209A4236D841
:10D550000AAB009312AB02936A46002326001371B4
:10D560001373B8363378002B05D069462000FFF7D7
:10D5700069FF002823D104AF1822002138000BF0E6
:10D580007BFE2B7838003B7033783B726B46FB6038
:10D590006B883B82AB887B820AF0BCFD02000320D3
:10D5A000002A0CD101235834217810000B4323703A
:10D5B00005E0203B054A9BB203209342C3D91BB030
:10D5C000F0BDC046603F0000FF3F0000E03F0000AC
:10D5D000F0B59DB01F006B4605001A70581C06225E
:10D5E000229E02AC0BF02DFE002F2ED03B88238014
:10D5F0007B886380BB88A380FB88E3800CAB04A995
:10D60000049314AB8B602F000023B9370B710B739D
:10D610003B78002B21D101203B78022708A9034049
:10D620005A000B78BB4304AF4F601343002E1BD14D
:10D630002A00323212788343024013430B70AB8DC1
:10D640000B81EB8D4B812B8E18E032232380DB186E
:10D650006380F533A780FF33CFE72800FFF7F2FEA2
:10D660000028D8D01DB0F0BDB279834302401343E7
:10D670000B7033880B8173884B81B3882200684616
:10D680008B810AF05DFD030000208342EAD0063062
:10D69000082BE7D006D80130042BE3D0834209D110
:10D6A0000420DFE70520112BDCD0034A9342F7D09A
:10D6B000102BF5D00B20D5E70232000013B504681B
:10D6C0000093A46813000A000149A04716BDC04694
:10D6D000FFFF000037B506AC25780468019500937C
:10D6E000246913000A000149A0473EBDFFFF000066
:10D6F000F0B589B0019307000FAB0D0016000021B3
:10D70000082202A81C780BF0B7FD0EAB1B8802AAFA
:10D710001380019B0393002C09D0310028000AF0EC
:10D720007EFE031E00D00323180009B0F0BD3B00AD
:10D730007A79F833A2420DD90833190008390988DB
:10D74000B1420FD130222034A400E3590133DB7FF2
:10D75000134213D102AA310028000AF060FE00280B
:10D76000E1D107E00134E5E71C4B9A4204D01C4BA1
:10D770009A4229D10623D7E70523D5E71022134083
:10D780005A425341002004AC0133A370019B268010
:10D79000E3600EABA360134BA0809D4207D1FFF75F
:10D7A0003BFC03681B6998470AF034FE0500210022
:10D7B00028000AF038FE002382B29A42B4D0112A1F
:10D7C000DAD0D1D8082AD5D002AA310028000AF030
:10D7D00026FE05230028A7D0023BA5E70330000062
:10D7E00001340000FFFF0000F0B5050099B008000B
:10D7F0002E240C9100F010F906ABE41812902200D0
:10D8000012A901200AF009FE002802D0032019B055
:10D81000F0BD23880C9A0B9093830C9B0B9A1B7D75
:10D820009A4200DB98E06B791D2B01D90720EEE7C7
:10D830000C9B9B690D930B9B0D9A9B009C586369F5
:10D84000002B00D08DE0638B002B00D089E0631C9F
:10D85000DB7F022B00D084E00B980130C3B20B9326
:10D86000DBE76979A31C1F31C9006918621CDB7FE3
:10D87000D27F089121002A310978002007912100E8
:10D880002931097806910E9905910D990491217F0E
:10D890000391218B0291618B01916169009112A921
:10D8A0000AF0C3FF0028B1D16B7907001A002032BB
:10D8B00092001F335451DB005B5BE3836B790133D0
:10D8C0006B71230028331B789F42C5DA8E239B009F
:10D8D000EB5C132BAAD8626ABB009E580023180089
:10D8E00013A90B70CA1801335070102BFAD1354BA5
:10D8F00030004B820AF01AFE0D90002829D130002A
:10D9000000F08AF88E229200AA5C738B1E32FF32DE
:10D910005200AA180292327F12900192328B12A901
:10D92000009272690D980BF060F8002800D06DE746
:10D930008E238E219B00EA5C8900531CDBB26B5462
:10D940001D337A32FF3392005B005651EB185B882F
:10D95000F3830137FFB2B4E72B79002001332B7139
:10D9600055E7200000F058F82300002628331290D5
:10D970000E960D960F930F9B1B789E4200DB70E76F
:10D98000626AB3009F58342206AB9B1800221A70BB
:10D990000023002113AAD21801335170102BF8D1A3
:10D9A000462206AB9B18074A13A938001A800AF0D2
:10D9B000BDFD002803D07B8B0E937B690D93013650
:10D9C000F6B2D8E70129000070B505000AF020FB87
:10D9D00004000620002C1CD1280078222100803071
:10D9E0000BF04AFC2800E93050222100FF300BF0F8
:10D9F00043FC280008222100F8300BF03DFC054BC9
:10DA00002822E81821000BF037FC8E2320009B0011
:10DA1000EC5470BD3A020000F0B5438A85B0019322
:10DA2000037805000126002B3BD083190093214B7E
:10DA300000241B6811279C461F49A44515D03A00B5
:10DA4000002362438A18981E012804D90098D65CE6
:10DA5000C05C864207D10133102BF4D111235C4303
:10DA600009190E7C1DE00134E7E700980AF0C6FEB4
:10DA70002B7807000600002B01D112350095042CED
:10DA80000FD0112565430C4B10225D190099280019
:10DA90000BF0D7FB0023AB70EB70064B01342F74F7
:10DAA0001C6003AB9E705888019B00040343180060
:10DAB00005B0F0BD50270020E5290020F7B5FA2673
:10DAC000B6007143009308AB1B78040008001449AA
:10DAD0001700019302F010FC85B2300025807843D6
